{
  "_format": "hh-sol-artifact-1",
  "contractName": "TriviaStakeMulti",
  "sourceName": "contracts/TriviaStakeMulti.sol",
  "abi": [
    {
      "inputs": [
        {
          "internalType": "address",
          "name": "_cusd",
          "type": "address"
        },
        {
          "internalType": "address",
          "name": "_usdc",
          "type": "address"
        }
      ],
      "stateMutability": "nonpayable",
      "type": "constructor"
    },
    {
      "inputs": [
        {
          "internalType": "address",
          "name": "owner",
          "type": "address"
        }
      ],
      "name": "OwnableInvalidOwner",
      "type": "error"
    },
    {
      "inputs": [
        {
          "internalType": "address",
          "name": "account",
          "type": "address"
        }
      ],
      "name": "OwnableUnauthorizedAccount",
      "type": "error"
    },
    {
      "inputs": [],
      "name": "ReentrancyGuardReentrantCall",
      "type": "error"
    },
    {
      "anonymous": false,
      "inputs": [
        {
          "indexed": true,
          "internalType": "address",
          "name": "funder",
          "type": "address"
        },
        {
          "indexed": false,
          "internalType": "address",
          "name": "token",
          "type": "address"
        },
        {
          "indexed": false,
          "internalType": "uint256",
          "name": "amount",
          "type": "uint256"
        }
      ],
      "name": "HouseFunded",
      "type": "event"
    },
    {
      "anonymous": false,
      "inputs": [
        {
          "indexed": true,
          "internalType": "bytes32",
          "name": "matchId",
          "type": "bytes32"
        },
        {
          "indexed": false,
          "internalType": "address",
          "name": "creator",
          "type": "address"
        },
        {
          "indexed": false,
          "internalType": "address",
          "name": "token",
          "type": "address"
        },
        {
          "indexed": false,
          "internalType": "uint256",
          "name": "stakeAmount",
          "type": "uint256"
        }
      ],
      "name": "MatchCreated",
      "type": "event"
    },
    {
      "anonymous": false,
      "inputs": [
        {
          "indexed": true,
          "internalType": "bytes32",
          "name": "matchId",
          "type": "bytes32"
        },
        {
          "indexed": false,
          "internalType": "address",
          "name": "player",
          "type": "address"
        },
        {
          "indexed": false,
          "internalType": "uint256",
          "name": "amount",
          "type": "uint256"
        }
      ],
      "name": "MatchRefunded",
      "type": "event"
    },
    {
      "anonymous": false,
      "inputs": [
        {
          "indexed": true,
          "internalType": "bytes32",
          "name": "matchId",
          "type": "bytes32"
        },
        {
          "indexed": false,
          "internalType": "uint256",
          "name": "totalPot",
          "type": "uint256"
        },
        {
          "indexed": false,
          "internalType": "uint256",
          "name": "houseCut",
          "type": "uint256"
        },
        {
          "indexed": false,
          "internalType": "address[]",
          "name": "winners",
          "type": "address[]"
        },
        {
          "indexed": false,
          "internalType": "address",
          "name": "token",
          "type": "address"
        }
      ],
      "name": "MatchResolved",
      "type": "event"
    },
    {
      "anonymous": false,
      "inputs": [
        {
          "indexed": true,
          "internalType": "address",
          "name": "previousOwner",
          "type": "address"
        },
        {
          "indexed": true,
          "internalType": "address",
          "name": "newOwner",
          "type": "address"
        }
      ],
      "name": "OwnershipTransferred",
      "type": "event"
    },
    {
      "anonymous": false,
      "inputs": [
        {
          "indexed": true,
          "internalType": "bytes32",
          "name": "matchId",
          "type": "bytes32"
        },
        {
          "indexed": false,
          "internalType": "address",
          "name": "player",
          "type": "address"
        },
        {
          "indexed": false,
          "internalType": "uint256",
          "name": "stakeAmount",
          "type": "uint256"
        }
      ],
      "name": "PlayerJoined",
      "type": "event"
    },
    {
      "anonymous": false,
      "inputs": [
        {
          "indexed": true,
          "internalType": "address",
          "name": "player",
          "type": "address"
        },
        {
          "indexed": false,
          "internalType": "address",
          "name": "token",
          "type": "address"
        },
        {
          "indexed": false,
          "internalType": "uint256",
          "name": "amount",
          "type": "uint256"
        }
      ],
      "name": "RewardClaimed",
      "type": "event"
    },
    {
      "inputs": [
        {
          "internalType": "address",
          "name": "token",
          "type": "address"
        }
      ],
      "name": "claimReward",
      "outputs": [],
      "stateMutability": "nonpayable",
      "type": "function"
    },
    {
      "inputs": [
        {
          "internalType": "bytes32",
          "name": "matchId",
          "type": "bytes32"
        },
        {
          "internalType": "address",
          "name": "token",
          "type": "address"
        },
        {
          "internalType": "uint256",
          "name": "stakeAmount",
          "type": "uint256"
        }
      ],
      "name": "createMatch",
      "outputs": [],
      "stateMutability": "nonpayable",
      "type": "function"
    },
    {
      "inputs": [],
      "name": "cusd",
      "outputs": [
        {
          "internalType": "contract IERC20",
          "name": "",
          "type": "address"
        }
      ],
      "stateMutability": "view",
      "type": "function"
    },
    {
      "inputs": [
        {
          "internalType": "address",
          "name": "token",
          "type": "address"
        }
      ],
      "name": "fundHousePool",
      "outputs": [],
      "stateMutability": "nonpayable",
      "type": "function"
    },
    {
      "inputs": [
        {
          "internalType": "bytes32",
          "name": "matchId",
          "type": "bytes32"
        }
      ],
      "name": "getMatchInfo",
      "outputs": [
        {
          "internalType": "address",
          "name": "creator",
          "type": "address"
        },
        {
          "internalType": "address",
          "name": "token",
          "type": "address"
        },
        {
          "internalType": "uint256",
          "name": "stakeAmount",
          "type": "uint256"
        },
        {
          "internalType": "uint256",
          "name": "playerCount",
          "type": "uint256"
        },
        {
          "internalType": "bool",
          "name": "resolved",
          "type": "bool"
        },
        {
          "internalType": "address[]",
          "name": "players",
          "type": "address[]"
        }
      ],
      "stateMutability": "view",
      "type": "function"
    },
    {
      "inputs": [
        {
          "internalType": "bytes32",
          "name": "matchId",
          "type": "bytes32"
        },
        {
          "internalType": "address",
          "name": "player",
          "type": "address"
        }
      ],
      "name": "getPlayerStake",
      "outputs": [
        {
          "internalType": "uint256",
          "name": "",
          "type": "uint256"
        }
      ],
      "stateMutability": "view",
      "type": "function"
    },
    {
      "inputs": [
        {
          "internalType": "bytes32",
          "name": "matchId",
          "type": "bytes32"
        },
        {
          "internalType": "address",
          "name": "player",
          "type": "address"
        }
      ],
      "name": "hasPlayerRefunded",
      "outputs": [
        {
          "internalType": "bool",
          "name": "",
          "type": "bool"
        }
      ],
      "stateMutability": "view",
      "type": "function"
    },
    {
      "inputs": [
        {
          "internalType": "address",
          "name": "",
          "type": "address"
        }
      ],
      "name": "housePool",
      "outputs": [
        {
          "internalType": "uint256",
          "name": "",
          "type": "uint256"
        }
      ],
      "stateMutability": "view",
      "type": "function"
    },
    {
      "inputs": [
        {
          "internalType": "bytes32",
          "name": "matchId",
          "type": "bytes32"
        }
      ],
      "name": "joinMatch",
      "outputs": [],
      "stateMutability": "nonpayable",
      "type": "function"
    },
    {
      "inputs": [],
      "name": "owner",
      "outputs": [
        {
          "internalType": "address",
          "name": "",
          "type": "address"
        }
      ],
      "stateMutability": "view",
      "type": "function"
    },
    {
      "inputs": [
        {
          "internalType": "address",
          "name": "",
          "type": "address"
        },
        {
          "internalType": "address",
          "name": "",
          "type": "address"
        }
      ],
      "name": "playerRewards",
      "outputs": [
        {
          "internalType": "uint256",
          "name": "",
          "type": "uint256"
        }
      ],
      "stateMutability": "view",
      "type": "function"
    },
    {
      "inputs": [
        {
          "internalType": "bytes32",
          "name": "matchId",
          "type": "bytes32"
        }
      ],
      "name": "refund",
      "outputs": [],
      "stateMutability": "nonpayable",
      "type": "function"
    },
    {
      "inputs": [],
      "name": "renounceOwnership",
      "outputs": [],
      "stateMutability": "nonpayable",
      "type": "function"
    },
    {
      "inputs": [
        {
          "internalType": "bytes32",
          "name": "matchId",
          "type": "bytes32"
        },
        {
          "internalType": "address[]",
          "name": "winners",
          "type": "address[]"
        }
      ],
      "name": "resolveMatch",
      "outputs": [],
      "stateMutability": "nonpayable",
      "type": "function"
    },
    {
      "inputs": [
        {
          "internalType": "address",
          "name": "newOwner",
          "type": "address"
        }
      ],
      "name": "transferOwnership",
      "outputs": [],
      "stateMutability": "nonpayable",
      "type": "function"
    },
    {
      "inputs": [],
      "name": "usdc",
      "outputs": [
        {
          "internalType": "contract IERC20",
          "name": "",
          "type": "address"
        }
      ],
      "stateMutability": "view",
      "type": "function"
    }
  ],
  "bytecode": "0x60806040523480156200001157600080fd5b506040516200348d3803806200348d8339818101604052810190620000379190620002d5565b33600073ffffffffffffffffffffffffffffffffffffffff168173ffffffffffffffffffffffffffffffffffffffff1603620000ad5760006040517f1e4fbdf7000000000000000000000000000000000000000000000000000000008152600401620000a491906200032d565b60405180910390fd5b620000be816200017260201b60201c565b506001620000e1620000d56200023660201b60201c565b6200026160201b60201c565b6000018190555081600460006101000a81548173ffffffffffffffffffffffffffffffffffffffff021916908373ffffffffffffffffffffffffffffffffffffffff16021790555080600560006101000a81548173ffffffffffffffffffffffffffffffffffffffff021916908373ffffffffffffffffffffffffffffffffffffffff16021790555050506200034a565b60008060009054906101000a900473ffffffffffffffffffffffffffffffffffffffff169050816000806101000a81548173ffffffffffffffffffffffffffffffffffffffff021916908373ffffffffffffffffffffffffffffffffffffffff1602179055508173ffffffffffffffffffffffffffffffffffffffff168173ffffffffffffffffffffffffffffffffffffffff167f8be0079c531659141344cd1fd0a4f28419497f9722a3daafe3b4186f6b6457e060405160405180910390a35050565b60007f9b779b17422d0df92223018b32b4d1fa46e071723d6817e2486d003becc55f0060001b905090565b6000819050919050565b600080fd5b600073ffffffffffffffffffffffffffffffffffffffff82169050919050565b60006200029d8262000270565b9050919050565b620002af8162000290565b8114620002bb57600080fd5b50565b600081519050620002cf81620002a4565b92915050565b60008060408385031215620002ef57620002ee6200026b565b5b6000620002ff85828601620002be565b92505060206200031285828601620002be565b9150509250929050565b620003278162000290565b82525050565b60006020820190506200034460008301846200031c565b92915050565b613133806200035a6000396000f3fe608060405234801561001057600080fd5b50600436106101005760003560e01c80637249fbb611610097578063d279c19111610066578063d279c1911461028a578063eee1cc02146102a6578063f2fde38b146102d6578063f6d3cf74146102f257610100565b80637249fbb6146102045780638da5cb5b146102205780639ff694421461023e578063ad3cd80c1461025a57610100565b80633e413bee116100d35780633e413bee1461018b5780636b8a4928146101a9578063707cbfc0146101de578063715018a6146101fa57610100565b80630c577bdc1461010557806314d6207114610123578063282cccba1461013f5780632ccd5d2f1461016f575b600080fd5b61010d610322565b60405161011a91906120c8565b60405180910390f35b61013d600480360381019061013891906122c4565b610348565b005b61015960048036038101906101549190612320565b61095f565b6040516101669190612379565b60405180910390f35b610189600480360381019061018491906123c0565b610984565b005b610193610d5f565b6040516101a091906120c8565b60405180910390f35b6101c360048036038101906101be9190612413565b610d85565b6040516101d596959493929190612528565b60405180910390f35b6101f860048036038101906101f39190612590565b610f41565b005b610202611141565b005b61021e60048036038101906102199190612413565b611155565b005b610228611589565b60405161023591906125bd565b60405180910390f35b61025860048036038101906102539190612413565b6115b2565b005b610274600480360381019061026f9190612590565b611984565b6040516102819190612379565b60405180910390f35b6102a4600480360381019061029f9190612590565b61199c565b005b6102c060048036038101906102bb91906125d8565b611bc5565b6040516102cd9190612618565b60405180910390f35b6102f060048036038101906102eb9190612590565b611c35565b005b61030c600480360381019061030791906125d8565b611cbb565b6040516103199190612379565b60405180910390f35b600460009054906101000a900473ffffffffffffffffffffffffffffffffffffffff1681565b610350611d1e565b6000600160008481526020019081526020016000209050600073ffffffffffffffffffffffffffffffffffffffff168160000160009054906101000a900473ffffffffffffffffffffffffffffffffffffffff1673ffffffffffffffffffffffffffffffffffffffff16036103fa576040517f08c379a00000000000000000000000000000000000000000000000000000000081526004016103f190612690565b60405180910390fd5b8060040160009054906101000a900460ff161561044c576040517f08c379a0000000000000000000000000000000000000000000000000000000008152600401610443906126fc565b60405180910390fd5b6000816003015411610493576040517f08c379a000000000000000000000000000000000000000000000000000000000815260040161048a90612768565b60405180910390fd5b8060000160009054906101000a900473ffffffffffffffffffffffffffffffffffffffff1673ffffffffffffffffffffffffffffffffffffffff163373ffffffffffffffffffffffffffffffffffffffff1614610525576040517f08c379a000000000000000000000000000000000000000000000000000000000815260040161051c906127d4565b60405180910390fd5b600080600090505b82600501805490508110156105de57826006016000846005018381548110610558576105576127f4565b5b9060005260206000200160009054906101000a900473ffffffffffffffffffffffffffffffffffffffff1673ffffffffffffffffffffffffffffffffffffffff1673ffffffffffffffffffffffffffffffffffffffff16815260200190815260200160002054826105c99190612852565b915080806105d690612886565b91505061052d565b5060008111610622576040517f08c379a00000000000000000000000000000000000000000000000000000000081526004016106199061291a565b60405180910390fd5b60008260010160009054906101000a900473ffffffffffffffffffffffffffffffffffffffff1690506000806000865103610663578391506000905061089d565b60005b86518110156107835761069388888381518110610686576106856127f4565b5b6020026020010151611d41565b6106d2576040517f08c379a00000000000000000000000000000000000000000000000000000000081526004016106c990612986565b60405180910390fd5b60008660060160008984815181106106ed576106ec6127f4565b5b602002602001015173ffffffffffffffffffffffffffffffffffffffff1673ffffffffffffffffffffffffffffffffffffffff1681526020019081526020016000205411610770576040517f08c379a0000000000000000000000000000000000000000000000000000000008152600401610767906129f2565b60405180910390fd5b808061077b90612886565b915050610666565b506000600a9050606481866107989190612a12565b6107a29190612a83565b925082856107b09190612ab4565b9150600082111561089b5760008751836107ca9190612a83565b905060005b88518110156108985781600360008b84815181106107f0576107ef6127f4565b5b602002602001015173ffffffffffffffffffffffffffffffffffffffff1673ffffffffffffffffffffffffffffffffffffffff16815260200190815260200160002060008873ffffffffffffffffffffffffffffffffffffffff1673ffffffffffffffffffffffffffffffffffffffff168152602001908152602001600020600082825461087e9190612852565b92505081905550808061089090612886565b9150506107cf565b50505b505b60018560040160006101000a81548160ff02191690831515021790555081600260008573ffffffffffffffffffffffffffffffffffffffff1673ffffffffffffffffffffffffffffffffffffffff16815260200190815260200160002060008282546109099190612852565b92505081905550867fff06ec7b52de055bbe0abda883e2444fc987db1e7e99b04a1552d1d288f294a2858489876040516109469493929190612ae8565b60405180910390a2505050505061095b611e09565b5050565b6003602052816000526040600020602052806000526040600020600091509150505481565b61098c611d1e565b600073ffffffffffffffffffffffffffffffffffffffff166001600085815260200190815260200160002060000160009054906101000a900473ffffffffffffffffffffffffffffffffffffffff1673ffffffffffffffffffffffffffffffffffffffff1614610a31576040517f08c379a0000000000000000000000000000000000000000000000000000000008152600401610a2890612b80565b60405180910390fd5b60008111610a74576040517f08c379a0000000000000000000000000000000000000000000000000000000008152600401610a6b90612bec565b60405180910390fd5b6000600160008581526020019081526020016000209050338160000160006101000a81548173ffffffffffffffffffffffffffffffffffffffff021916908373ffffffffffffffffffffffffffffffffffffffff160217905550828160010160006101000a81548173ffffffffffffffffffffffffffffffffffffffff021916908373ffffffffffffffffffffffffffffffffffffffff1602179055508181600201819055506000816003018190555060008160040160006101000a81548160ff021916908315150217905550806005016000610b51919061200b565b60008390508073ffffffffffffffffffffffffffffffffffffffff166323b872dd3330866040518463ffffffff1660e01b8152600401610b9393929190612c0c565b6020604051808303816000875af1158015610bb2573d6000803e3d6000fd5b505050506040513d601f19601f82011682018060405250810190610bd69190612c6f565b610c15576040517f08c379a0000000000000000000000000000000000000000000000000000000008152600401610c0c90612ce8565b60405180910390fd5b81600501339080600181540180825580915050600190039060005260206000200160009091909190916101000a81548173ffffffffffffffffffffffffffffffffffffffff021916908373ffffffffffffffffffffffffffffffffffffffff160217905550828260060160003373ffffffffffffffffffffffffffffffffffffffff1673ffffffffffffffffffffffffffffffffffffffff16815260200190815260200160002081905550816003016000815480929190610cd590612886565b9190505550847f4becde1621d018f3c4630cadb81bbd72061cd951ebaab5e8b10d5b2fecfa49ce338686604051610d0e93929190612c0c565b60405180910390a2847f65525cf08411b7a61d237681a43890956ad2e2ede88afd947f58eb4158c37f953385604051610d48929190612d08565b60405180910390a25050610d5a611e09565b505050565b600560009054906101000a900473ffffffffffffffffffffffffffffffffffffffff1681565b600080600080600060606000600160008981526020019081526020016000209050600073ffffffffffffffffffffffffffffffffffffffff168160000160009054906101000a900473ffffffffffffffffffffffffffffffffffffffff1673ffffffffffffffffffffffffffffffffffffffff1603610e39576040517f08c379a0000000000000000000000000000000000000000000000000000000008152600401610e3090612690565b60405180910390fd5b8060000160009054906101000a900473ffffffffffffffffffffffffffffffffffffffff168160010160009054906101000a900473ffffffffffffffffffffffffffffffffffffffff16826002015483600301548460040160009054906101000a900460ff168560050180805480602002602001604051908101604052809291908181526020018280548015610f2457602002820191906000526020600020905b8160009054906101000a900473ffffffffffffffffffffffffffffffffffffffff1673ffffffffffffffffffffffffffffffffffffffff1681526020019060010190808311610eda575b505050505090509650965096509650965096505091939550919395565b610f49611d1e565b6000600360003373ffffffffffffffffffffffffffffffffffffffff1673ffffffffffffffffffffffffffffffffffffffff16815260200190815260200160002060008373ffffffffffffffffffffffffffffffffffffffff1673ffffffffffffffffffffffffffffffffffffffff1681526020019081526020016000205490506000811161100d576040517f08c379a000000000000000000000000000000000000000000000000000000000815260040161100490612d7d565b60405180910390fd5b80600260008473ffffffffffffffffffffffffffffffffffffffff1673ffffffffffffffffffffffffffffffffffffffff168152602001908152602001600020600082825461105c9190612852565b925050819055506000600360003373ffffffffffffffffffffffffffffffffffffffff1673ffffffffffffffffffffffffffffffffffffffff16815260200190815260200160002060008473ffffffffffffffffffffffffffffffffffffffff1673ffffffffffffffffffffffffffffffffffffffff168152602001908152602001600020819055503373ffffffffffffffffffffffffffffffffffffffff167fb336f6707da65863e62680fc0bafa50d3dc980ed512c80c21b4cda7e3d7b6540838360405161112d929190612d08565b60405180910390a25061113e611e09565b50565b611149611e24565b6111536000611eab565b565b61115d611d1e565b6000600160008381526020019081526020016000209050600073ffffffffffffffffffffffffffffffffffffffff168160000160009054906101000a900473ffffffffffffffffffffffffffffffffffffffff1673ffffffffffffffffffffffffffffffffffffffff1603611207576040517f08c379a00000000000000000000000000000000000000000000000000000000081526004016111fe90612690565b60405180910390fd5b8060040160009054906101000a900460ff1615611259576040517f08c379a000000000000000000000000000000000000000000000000000000000815260040161125090612de9565b60405180910390fd5b6112638233611d41565b6112a2576040517f08c379a000000000000000000000000000000000000000000000000000000000815260040161129990612e55565b60405180910390fd5b8060070160003373ffffffffffffffffffffffffffffffffffffffff1673ffffffffffffffffffffffffffffffffffffffff16815260200190815260200160002060009054906101000a900460ff1615611331576040517f08c379a000000000000000000000000000000000000000000000000000000000815260040161132890612ec1565b60405180910390fd5b60008160060160003373ffffffffffffffffffffffffffffffffffffffff1673ffffffffffffffffffffffffffffffffffffffff168152602001908152602001600020549050600081116113ba576040517f08c379a00000000000000000000000000000000000000000000000000000000081526004016113b190612f2d565b60405180910390fd5b60018260070160003373ffffffffffffffffffffffffffffffffffffffff1673ffffffffffffffffffffffffffffffffffffffff16815260200190815260200160002060006101000a81548160ff02191690831515021790555060008260060160003373ffffffffffffffffffffffffffffffffffffffff1673ffffffffffffffffffffffffffffffffffffffff1681526020019081526020016000208190555060008260010160009054906101000a900473ffffffffffffffffffffffffffffffffffffffff1690508073ffffffffffffffffffffffffffffffffffffffff1663a9059cbb33846040518363ffffffff1660e01b81526004016114bf929190612d08565b6020604051808303816000875af11580156114de573d6000803e3d6000fd5b505050506040513d601f19601f820116820180604052508101906115029190612c6f565b611541576040517f08c379a000000000000000000000000000000000000000000000000000000000815260040161153890612f99565b60405180910390fd5b837f0ccb50f386a2bba2829da1414813b7e8e1bbdb9bff8b15ba912a318d69ec0c263384604051611573929190612d08565b60405180910390a2505050611586611e09565b50565b60008060009054906101000a900473ffffffffffffffffffffffffffffffffffffffff16905090565b6115ba611d1e565b6000600160008381526020019081526020016000209050600073ffffffffffffffffffffffffffffffffffffffff168160000160009054906101000a900473ffffffffffffffffffffffffffffffffffffffff1673ffffffffffffffffffffffffffffffffffffffff1603611664576040517f08c379a000000000000000000000000000000000000000000000000000000000815260040161165b90612690565b60405180910390fd5b8060040160009054906101000a900460ff16156116b6576040517f08c379a00000000000000000000000000000000000000000000000000000000081526004016116ad90612de9565b60405180910390fd5b6116c08233611d41565b15611700576040517f08c379a00000000000000000000000000000000000000000000000000000000081526004016116f790613005565b60405180910390fd5b60008160060160003373ffffffffffffffffffffffffffffffffffffffff1673ffffffffffffffffffffffffffffffffffffffff1681526020019081526020016000205414611784576040517f08c379a000000000000000000000000000000000000000000000000000000000815260040161177b90613071565b60405180910390fd5b60008160010160009054906101000a900473ffffffffffffffffffffffffffffffffffffffff1690508073ffffffffffffffffffffffffffffffffffffffff166323b872dd333085600201546040518463ffffffff1660e01b81526004016117ee93929190612c0c565b6020604051808303816000875af115801561180d573d6000803e3d6000fd5b505050506040513d601f19601f820116820180604052508101906118319190612c6f565b611870576040517f08c379a000000000000000000000000000000000000000000000000000000000815260040161186790612ce8565b60405180910390fd5b81600501339080600181540180825580915050600190039060005260206000200160009091909190916101000a81548173ffffffffffffffffffffffffffffffffffffffff021916908373ffffffffffffffffffffffffffffffffffffffff16021790555081600201548260060160003373ffffffffffffffffffffffffffffffffffffffff1673ffffffffffffffffffffffffffffffffffffffff1681526020019081526020016000208190555081600301600081548092919061193490612886565b9190505550827f65525cf08411b7a61d237681a43890956ad2e2ede88afd947f58eb4158c37f9533846002015460405161196f929190612d08565b60405180910390a25050611981611e09565b50565b60026020528060005260406000206000915090505481565b6119a4611d1e565b6000600360003373ffffffffffffffffffffffffffffffffffffffff1673ffffffffffffffffffffffffffffffffffffffff16815260200190815260200160002060008373ffffffffffffffffffffffffffffffffffffffff1673ffffffffffffffffffffffffffffffffffffffff16815260200190815260200160002054905060008111611a68576040517f08c379a0000000000000000000000000000000000000000000000000000000008152600401611a5f906130dd565b60405180910390fd5b6000600360003373ffffffffffffffffffffffffffffffffffffffff1673ffffffffffffffffffffffffffffffffffffffff16815260200190815260200160002060008473ffffffffffffffffffffffffffffffffffffffff1673ffffffffffffffffffffffffffffffffffffffff168152602001908152602001600020819055508173ffffffffffffffffffffffffffffffffffffffff1663a9059cbb33836040518363ffffffff1660e01b8152600401611b25929190612d08565b6020604051808303816000875af1158015611b44573d6000803e3d6000fd5b505050506040513d601f19601f82011682018060405250810190611b689190612c6f565b503373ffffffffffffffffffffffffffffffffffffffff167f0aa4d283470c904c551d18bb894d37e17674920f3261a7f854be501e25f421b78383604051611bb1929190612d08565b60405180910390a250611bc2611e09565b50565b6000806001600085815260200190815260200160002090508060070160008473ffffffffffffffffffffffffffffffffffffffff1673ffffffffffffffffffffffffffffffffffffffff16815260200190815260200160002060009054906101000a900460ff1691505092915050565b611c3d611e24565b600073ffffffffffffffffffffffffffffffffffffffff168173ffffffffffffffffffffffffffffffffffffffff1603611caf5760006040517f1e4fbdf7000000000000000000000000000000000000000000000000000000008152600401611ca691906125bd565b60405180910390fd5b611cb881611eab565b50565b6000806001600085815260200190815260200160002090508060060160008473ffffffffffffffffffffffffffffffffffffffff1673ffffffffffffffffffffffffffffffffffffffff1681526020019081526020016000205491505092915050565b611d26611f6f565b6002611d38611d33611fb0565b611fdb565b60000181905550565b60008060016000858152602001908152602001600020905060005b8160050180549050811015611dfc578373ffffffffffffffffffffffffffffffffffffffff16826005018281548110611d9857611d976127f4565b5b9060005260206000200160009054906101000a900473ffffffffffffffffffffffffffffffffffffffff1673ffffffffffffffffffffffffffffffffffffffff1603611de957600192505050611e03565b8080611df490612886565b915050611d5c565b5060009150505b92915050565b6001611e1b611e16611fb0565b611fdb565b60000181905550565b611e2c611fe5565b73ffffffffffffffffffffffffffffffffffffffff16611e4a611589565b73ffffffffffffffffffffffffffffffffffffffff1614611ea957611e6d611fe5565b6040517f118cdaa7000000000000000000000000000000000000000000000000000000008152600401611ea091906125bd565b60405180910390fd5b565b60008060009054906101000a900473ffffffffffffffffffffffffffffffffffffffff169050816000806101000a81548173ffffffffffffffffffffffffffffffffffffffff021916908373ffffffffffffffffffffffffffffffffffffffff1602179055508173ffffffffffffffffffffffffffffffffffffffff168173ffffffffffffffffffffffffffffffffffffffff167f8be0079c531659141344cd1fd0a4f28419497f9722a3daafe3b4186f6b6457e060405160405180910390a35050565b611f77611fed565b15611fae576040517f3ee5aeb500000000000000000000000000000000000000000000000000000000815260040160405180910390fd5b565b60007f9b779b17422d0df92223018b32b4d1fa46e071723d6817e2486d003becc55f0060001b905090565b6000819050919050565b600033905090565b60006002612001611ffc611fb0565b611fdb565b6000015414905090565b5080546000825590600052602060002090810190612029919061202c565b50565b5b8082111561204557600081600090555060010161202d565b5090565b600073ffffffffffffffffffffffffffffffffffffffff82169050919050565b6000819050919050565b600061208e61208961208484612049565b612069565b612049565b9050919050565b60006120a082612073565b9050919050565b60006120b282612095565b9050919050565b6120c2816120a7565b82525050565b60006020820190506120dd60008301846120b9565b92915050565b6000604051905090565b600080fd5b600080fd5b6000819050919050565b61210a816120f7565b811461211557600080fd5b50565b60008135905061212781612101565b92915050565b600080fd5b6000601f19601f8301169050919050565b7f4e487b7100000000000000000000000000000000000000000000000000000000600052604160045260246000fd5b61217b82612132565b810181811067ffffffffffffffff8211171561219a57612199612143565b5b80604052505050565b60006121ad6120e3565b90506121b98282612172565b919050565b600067ffffffffffffffff8211156121d9576121d8612143565b5b602082029050602081019050919050565b600080fd5b60006121fa82612049565b9050919050565b61220a816121ef565b811461221557600080fd5b50565b60008135905061222781612201565b92915050565b600061224061223b846121be565b6121a3565b90508083825260208201905060208402830185811115612263576122626121ea565b5b835b8181101561228c57806122788882612218565b845260208401935050602081019050612265565b5050509392505050565b600082601f8301126122ab576122aa61212d565b5b81356122bb84826020860161222d565b91505092915050565b600080604083850312156122db576122da6120ed565b5b60006122e985828601612118565b925050602083013567ffffffffffffffff81111561230a576123096120f2565b5b61231685828601612296565b9150509250929050565b60008060408385031215612337576123366120ed565b5b600061234585828601612218565b925050602061235685828601612218565b9150509250929050565b6000819050919050565b61237381612360565b82525050565b600060208201905061238e600083018461236a565b92915050565b61239d81612360565b81146123a857600080fd5b50565b6000813590506123ba81612394565b92915050565b6000806000606084860312156123d9576123d86120ed565b5b60006123e786828701612118565b93505060206123f886828701612218565b9250506040612409868287016123ab565b9150509250925092565b600060208284031215612429576124286120ed565b5b600061243784828501612118565b91505092915050565b612449816121ef565b82525050565b60008115159050919050565b6124648161244f565b82525050565b600081519050919050565b600082825260208201905092915050565b6000819050602082019050919050565b61249f816121ef565b82525050565b60006124b18383612496565b60208301905092915050565b6000602082019050919050565b60006124d58261246a565b6124df8185612475565b93506124ea83612486565b8060005b8381101561251b57815161250288826124a5565b975061250d836124bd565b9250506001810190506124ee565b5085935050505092915050565b600060c08201905061253d6000830189612440565b61254a6020830188612440565b612557604083018761236a565b612564606083018661236a565b612571608083018561245b565b81810360a083015261258381846124ca565b9050979650505050505050565b6000602082840312156125a6576125a56120ed565b5b60006125b484828501612218565b91505092915050565b60006020820190506125d26000830184612440565b92915050565b600080604083850312156125ef576125ee6120ed565b5b60006125fd85828601612118565b925050602061260e85828601612218565b9150509250929050565b600060208201905061262d600083018461245b565b92915050565b600082825260208201905092915050565b7f4d61746368206e6f7420666f756e640000000000000000000000000000000000600082015250565b600061267a600f83612633565b915061268582612644565b602082019050919050565b600060208201905081810360008301526126a98161266d565b9050919050565b7f4d6174636820616c7265616479207265736f6c76656400000000000000000000600082015250565b60006126e6601683612633565b91506126f1826126b0565b602082019050919050565b60006020820190508181036000830152612715816126d9565b9050919050565b7f4e6f20706c617965727320696e206d6174636800000000000000000000000000600082015250565b6000612752601383612633565b915061275d8261271c565b602082019050919050565b6000602082019050818103600083015261278181612745565b9050919050565b7f4f6e6c792063726561746f722063616e207265736f6c76650000000000000000600082015250565b60006127be601883612633565b91506127c982612788565b602082019050919050565b600060208201905081810360008301526127ed816127b1565b9050919050565b7f4e487b7100000000000000000000000000000000000000000000000000000000600052603260045260246000fd5b7f4e487b7100000000000000000000000000000000000000000000000000000000600052601160045260246000fd5b600061285d82612360565b915061286883612360565b92508282019050808211156128805761287f612823565b5b92915050565b600061289182612360565b91507fffffffffffffffffffffffffffffffffffffffffffffffffffffffffffffffff82036128c3576128c2612823565b5b600182019050919050565b7f506f7420697320656d7074790000000000000000000000000000000000000000600082015250565b6000612904600c83612633565b915061290f826128ce565b602082019050919050565b60006020820190508181036000830152612933816128f7565b9050919050565b7f496e76616c69642077696e6e6572206164647265737300000000000000000000600082015250565b6000612970601683612633565b915061297b8261293a565b602082019050919050565b6000602082019050818103600083015261299f81612963565b9050919050565b7f57696e6e657220686173206e6f207374616b6500000000000000000000000000600082015250565b60006129dc601383612633565b91506129e7826129a6565b602082019050919050565b60006020820190508181036000830152612a0b816129cf565b9050919050565b6000612a1d82612360565b9150612a2883612360565b9250828202612a3681612360565b91508282048414831517612a4d57612a4c612823565b5b5092915050565b7f4e487b7100000000000000000000000000000000000000000000000000000000600052601260045260246000fd5b6000612a8e82612360565b9150612a9983612360565b925082612aa957612aa8612a54565b5b828204905092915050565b6000612abf82612360565b9150612aca83612360565b9250828203905081811115612ae257612ae1612823565b5b92915050565b6000608082019050612afd600083018761236a565b612b0a602083018661236a565b8181036040830152612b1c81856124ca565b9050612b2b6060830184612440565b95945050505050565b7f4d61746368206578697374730000000000000000000000000000000000000000600082015250565b6000612b6a600c83612633565b9150612b7582612b34565b602082019050919050565b60006020820190508181036000830152612b9981612b5d565b9050919050565b7f496e76616c6964207374616b6520616d6f756e74000000000000000000000000600082015250565b6000612bd6601483612633565b9150612be182612ba0565b602082019050919050565b60006020820190508181036000830152612c0581612bc9565b9050919050565b6000606082019050612c216000830186612440565b612c2e6020830185612440565b612c3b604083018461236a565b949350505050565b612c4c8161244f565b8114612c5757600080fd5b50565b600081519050612c6981612c43565b92915050565b600060208284031215612c8557612c846120ed565b5b6000612c9384828501612c5a565b91505092915050565b7f5472616e73666572206661696c65640000000000000000000000000000000000600082015250565b6000612cd2600f83612633565b9150612cdd82612c9c565b602082019050919050565b60006020820190508181036000830152612d0181612cc5565b9050919050565b6000604082019050612d1d6000830185612440565b612d2a602083018461236a565b9392505050565b7f4e6f2066756e6473000000000000000000000000000000000000000000000000600082015250565b6000612d67600883612633565b9150612d7282612d31565b602082019050919050565b60006020820190508181036000830152612d9681612d5a565b9050919050565b7f4d61746368207265736f6c766564000000000000000000000000000000000000600082015250565b6000612dd3600e83612633565b9150612dde82612d9d565b602082019050919050565b60006020820190508181036000830152612e0281612dc6565b9050919050565b7f4e6f74206120706c617965720000000000000000000000000000000000000000600082015250565b6000612e3f600c83612633565b9150612e4a82612e09565b602082019050919050565b60006020820190508181036000830152612e6e81612e32565b9050919050565b7f416c726561647920726566756e64656400000000000000000000000000000000600082015250565b6000612eab601083612633565b9150612eb682612e75565b602082019050919050565b60006020820190508181036000830152612eda81612e9e565b9050919050565b7f4e6f207374616b6520746f20726566756e640000000000000000000000000000600082015250565b6000612f17601283612633565b9150612f2282612ee1565b602082019050919050565b60006020820190508181036000830152612f4681612f0a565b9050919050565b7f526566756e64206661696c656400000000000000000000000000000000000000600082015250565b6000612f83600d83612633565b9150612f8e82612f4d565b602082019050919050565b60006020820190508181036000830152612fb281612f76565b9050919050565b7f416c7265616479206a6f696e6564000000000000000000000000000000000000600082015250565b6000612fef600e83612633565b9150612ffa82612fb9565b602082019050919050565b6000602082019050818103600083015261301e81612fe2565b9050919050565b7f416c7265616479207374616b6564000000000000000000000000000000000000600082015250565b600061305b600e83612633565b915061306682613025565b602082019050919050565b6000602082019050818103600083015261308a8161304e565b9050919050565b7f4e6f207265776172640000000000000000000000000000000000000000000000600082015250565b60006130c7600983612633565b91506130d282613091565b602082019050919050565b600060208201905081810360008301526130f6816130ba565b905091905056fea264697066735822122031876c99829890fefde95138ef69fab152f97dbead9a4aa828a47330261d99d664736f6c63430008140033",
  "linkReferences": {},
  "deployedLinkReferences": {}
}